:020000040000FA
:1000000001280F2004200128A30100308A002308C2
:1000100059200038031908003820A30A05280730A2
:100020009F00831603130608003986058312031305
:1000300006080039860583160313851083120313FF
:100040008510831603130510831203130510023065
:100050004E20A30100308A002308532000380319E2
:1000600008003E20A30A2A288514000085100800F5
:1000700086000514342002304E200800860005104A
:10008000342002304E2008005430A1002630A00059
:100090000000A00B4928A10B46280800A20044201C
:1000A000A20B4F280800820738340C340134803406
:1000B000003482072034573445344C3443344F34B1
:1000C0004D3445342034203420342034203420343E
:1000D00020342034003482072034543469346D34A1
:1000E00065343A3420342034203420342034203411
:0A00F0002034203420342034003482
:0400FA00003400349A
:02400E00383F39
:00000001FF
