:020000040000FA
:1000000001280F2004200128A30100308A002308C2
:100010009F200038031908003820A30A052807305C
:100020009F00831603130608003986058312031305
:1000300006080039860583160313851083120313FF
:100040008510831603130510831203130510033064
:100050009420A30100308A00230899200038031956
:1000600008006120A30A2A288514000085100800D2
:10007000A400A41B8617A41F8613241B0617241F85
:100080000613A41A8616A41E8612241A0616241E07
:1000900006120514342001309420A4198617A41DDB
:1000A000861324190617241D0613A4188616A41CEB
:1000B000861224180616241C0612342001309420BF
:1000C0000800A400A41B8617A41F8613241B061770
:1000D000241F0613A41A8616A41E8612241A0616B6
:1000E000241E06120510342001309420A41986170E
:1000F000A41D861324190617241D0613A41886169A
:10010000A41C861224180616241C06123420013062
:10011000942008005430A1002630A0000000A00B5D
:100120008F28A10B8C280800A2008A20A20B9528FA
:100130000800820728340C340134803400348207EC
:1001400020345434483441344E344B342034553404
:10015000203447344F344434203420342034203485
:10016000003482072034543469346D3465343A34B1
:1001700020342034203420342034203420342034DF
:060180002034203400349D
:04018600003400340D
:02400E00383F39
:00000001FF
